{
  "_format": "hh-sol-artifact-1",
  "contractName": "PatEtherWallet",
  "sourceName": "contracts/PatEtherWallet.sol",
  "abi": [
    {
      "inputs": [],
      "stateMutability": "nonpayable",
      "type": "constructor"
    },
    {
      "inputs": [
        {
          "internalType": "address",
          "name": "wallet",
          "type": "address"
        }
      ],
      "name": "balance",
      "outputs": [
        {
          "internalType": "uint256",
          "name": "",
          "type": "uint256"
        }
      ],
      "stateMutability": "view",
      "type": "function"
    },
    {
      "inputs": [],
      "name": "deposit",
      "outputs": [],
      "stateMutability": "payable",
      "type": "function"
    },
    {
      "inputs": [],
      "name": "myBalance",
      "outputs": [
        {
          "internalType": "uint256",
          "name": "",
          "type": "uint256"
        }
      ],
      "stateMutability": "view",
      "type": "function"
    },
    {
      "inputs": [
        {
          "internalType": "address payable",
          "name": "receiver",
          "type": "address"
        },
        {
          "internalType": "uint256",
          "name": "amount",
          "type": "uint256"
        }
      ],
      "name": "transfer",
      "outputs": [],
      "stateMutability": "nonpayable",
      "type": "function"
    },
    {
      "inputs": [
        {
          "internalType": "uint256",
          "name": "amount",
          "type": "uint256"
        }
      ],
      "name": "withdraw",
      "outputs": [],
      "stateMutability": "nonpayable",
      "type": "function"
    }
  ],
  "bytecode": "0x608060405234801561001057600080fd5b5033600260006101000a81548173ffffffffffffffffffffffffffffffffffffffff021916908373ffffffffffffffffffffffffffffffffffffffff160217905550610ccc806100616000396000f3fe60806040526004361061004a5760003560e01c80632e1a7d4d1461004f578063a9059cbb14610078578063c9116b69146100a1578063d0e30db0146100cc578063e3d670d7146100d6575b600080fd5b34801561005b57600080fd5b5061007660048036038101906100719190610924565b610113565b005b34801561008457600080fd5b5061009f600480360381019061009a91906109af565b61034f565b005b3480156100ad57600080fd5b506100b66105a3565b6040516100c391906109fe565b60405180910390f35b6100d4610677565b005b3480156100e257600080fd5b506100fd60048036038101906100f89190610a57565b6106d7565b60405161010a91906109fe565b60405180910390f35b80600160003373ffffffffffffffffffffffffffffffffffffffff1673ffffffffffffffffffffffffffffffffffffffff16815260200190815260200160002060009054906101000a900460ff166101a0576040517f08c379a000000000000000000000000000000000000000000000000000000000815260040161019790610ae1565b60405180910390fd5b6000803373ffffffffffffffffffffffffffffffffffffffff1673ffffffffffffffffffffffffffffffffffffffff16815260200190815260200160002054811115610221576040517f08c379a000000000000000000000000000000000000000000000000000000000815260040161021890610b4d565b60405180910390fd5b33600160008273ffffffffffffffffffffffffffffffffffffffff1673ffffffffffffffffffffffffffffffffffffffff16815260200190815260200160002060009054906101000a900460ff166102ae576040517f08c379a00000000000000000000000000000000000000000000000000000000081526004016102a590610ae1565b60405180910390fd5b3373ffffffffffffffffffffffffffffffffffffffff166108fc849081150290604051600060405180830381858888f193505050501580156102f4573d6000803e3d6000fd5b50826000803373ffffffffffffffffffffffffffffffffffffffff1673ffffffffffffffffffffffffffffffffffffffff16815260200190815260200160002060008282546103439190610b9c565b92505081905550505050565b80600160003373ffffffffffffffffffffffffffffffffffffffff1673ffffffffffffffffffffffffffffffffffffffff16815260200190815260200160002060009054906101000a900460ff166103dc576040517f08c379a00000000000000000000000000000000000000000000000000000000081526004016103d390610ae1565b60405180910390fd5b6000803373ffffffffffffffffffffffffffffffffffffffff1673ffffffffffffffffffffffffffffffffffffffff1681526020019081526020016000205481111561045d576040517f08c379a000000000000000000000000000000000000000000000000000000000815260040161045490610b4d565b60405180910390fd5b33600160008273ffffffffffffffffffffffffffffffffffffffff1673ffffffffffffffffffffffffffffffffffffffff16815260200190815260200160002060009054906101000a900460ff166104ea576040517f08c379a00000000000000000000000000000000000000000000000000000000081526004016104e190610ae1565b60405180910390fd5b826000803373ffffffffffffffffffffffffffffffffffffffff1673ffffffffffffffffffffffffffffffffffffffff16815260200190815260200160002060008282546105389190610b9c565b925050819055506105488461083d565b826000808673ffffffffffffffffffffffffffffffffffffffff1673ffffffffffffffffffffffffffffffffffffffff16815260200190815260200160002060008282546105969190610bd0565b9250508190555050505050565b600033600160008273ffffffffffffffffffffffffffffffffffffffff1673ffffffffffffffffffffffffffffffffffffffff16815260200190815260200160002060009054906101000a900460ff16610632576040517f08c379a000000000000000000000000000000000000000000000000000000000815260040161062990610ae1565b60405180910390fd5b6000803373ffffffffffffffffffffffffffffffffffffffff1673ffffffffffffffffffffffffffffffffffffffff1681526020019081526020016000205491505090565b6106803361083d565b346000803373ffffffffffffffffffffffffffffffffffffffff1673ffffffffffffffffffffffffffffffffffffffff16815260200190815260200160002060008282546106ce9190610bd0565b92505081905550565b6000600260009054906101000a900473ffffffffffffffffffffffffffffffffffffffff1673ffffffffffffffffffffffffffffffffffffffff163373ffffffffffffffffffffffffffffffffffffffff1614610769576040517f08c379a000000000000000000000000000000000000000000000000000000000815260040161076090610c76565b60405180910390fd5b81600160008273ffffffffffffffffffffffffffffffffffffffff1673ffffffffffffffffffffffffffffffffffffffff16815260200190815260200160002060009054906101000a900460ff166107f6576040517f08c379a00000000000000000000000000000000000000000000000000000000081526004016107ed90610ae1565b60405180910390fd5b6000808473ffffffffffffffffffffffffffffffffffffffff1673ffffffffffffffffffffffffffffffffffffffff16815260200190815260200160002054915050919050565b600160008273ffffffffffffffffffffffffffffffffffffffff1673ffffffffffffffffffffffffffffffffffffffff16815260200190815260200160002060009054906101000a900460ff166108e65760018060008373ffffffffffffffffffffffffffffffffffffffff1673ffffffffffffffffffffffffffffffffffffffff16815260200190815260200160002060006101000a81548160ff0219169083151502179055505b50565b600080fd5b6000819050919050565b610901816108ee565b811461090c57600080fd5b50565b60008135905061091e816108f8565b92915050565b60006020828403121561093a576109396108e9565b5b60006109488482850161090f565b91505092915050565b600073ffffffffffffffffffffffffffffffffffffffff82169050919050565b600061097c82610951565b9050919050565b61098c81610971565b811461099757600080fd5b50565b6000813590506109a981610983565b92915050565b600080604083850312156109c6576109c56108e9565b5b60006109d48582860161099a565b92505060206109e58582860161090f565b9150509250929050565b6109f8816108ee565b82525050565b6000602082019050610a1360008301846109ef565b92915050565b6000610a2482610951565b9050919050565b610a3481610a19565b8114610a3f57600080fd5b50565b600081359050610a5181610a2b565b92915050565b600060208284031215610a6d57610a6c6108e9565b5b6000610a7b84828501610a42565b91505092915050565b600082825260208201905092915050565b7f57616c6c6574206e6f7420666f756e6400000000000000000000000000000000600082015250565b6000610acb601083610a84565b9150610ad682610a95565b602082019050919050565b60006020820190508181036000830152610afa81610abe565b9050919050565b7f496e73756666696369656e742062616c616e6365000000000000000000000000600082015250565b6000610b37601483610a84565b9150610b4282610b01565b602082019050919050565b60006020820190508181036000830152610b6681610b2a565b9050919050565b7f4e487b7100000000000000000000000000000000000000000000000000000000600052601160045260246000fd5b6000610ba7826108ee565b9150610bb2836108ee565b9250828203905081811115610bca57610bc9610b6d565b5b92915050565b6000610bdb826108ee565b9150610be6836108ee565b9250828201905080821115610bfe57610bfd610b6d565b5b92915050565b7f4f6e6c79206f776e65722063616e2063616c6c20746869732066756e6374696f60008201527f6e00000000000000000000000000000000000000000000000000000000000000602082015250565b6000610c60602183610a84565b9150610c6b82610c04565b604082019050919050565b60006020820190508181036000830152610c8f81610c53565b905091905056fea26469706673582212205e17eaf9e27e25cc3033699cdb73ff66d06c79ef4e1a8d22fafeb6ddaf4fa18d64736f6c63430008130033",
  "linkReferences": {},
  "deployedLinkReferences": {}
}